{
  "_format": "hh-sol-artifact-1",
  "contractName": "IdentityRegistry",
  "sourceName": "contracts/IdentityRegistry.sol",
  "abi": [
    {
      "inputs": [],
      "stateMutability": "nonpayable",
      "type": "constructor"
    },
    {
      "anonymous": false,
      "inputs": [
        {
          "indexed": true,
          "internalType": "uint256",
          "name": "tokenId",
          "type": "uint256"
        },
        {
          "indexed": true,
          "internalType": "address",
          "name": "agent",
          "type": "address"
        },
        {
          "indexed": false,
          "internalType": "string",
          "name": "cardURI",
          "type": "string"
        }
      ],
      "name": "AgentRegistered",
      "type": "event"
    },
    {
      "anonymous": false,
      "inputs": [
        {
          "indexed": true,
          "internalType": "address",
          "name": "owner",
          "type": "address"
        },
        {
          "indexed": true,
          "internalType": "address",
          "name": "approved",
          "type": "address"
        },
        {
          "indexed": true,
          "internalType": "uint256",
          "name": "tokenId",
          "type": "uint256"
        }
      ],
      "name": "Approval",
      "type": "event"
    },
    {
      "anonymous": false,
      "inputs": [
        {
          "indexed": true,
          "internalType": "address",
          "name": "owner",
          "type": "address"
        },
        {
          "indexed": true,
          "internalType": "address",
          "name": "operator",
          "type": "address"
        },
        {
          "indexed": false,
          "internalType": "bool",
          "name": "approved",
          "type": "bool"
        }
      ],
      "name": "ApprovalForAll",
      "type": "event"
    },
    {
      "anonymous": false,
      "inputs": [
        {
          "indexed": false,
          "internalType": "uint256",
          "name": "_fromTokenId",
          "type": "uint256"
        },
        {
          "indexed": false,
          "internalType": "uint256",
          "name": "_toTokenId",
          "type": "uint256"
        }
      ],
      "name": "BatchMetadataUpdate",
      "type": "event"
    },
    {
      "anonymous": false,
      "inputs": [
        {
          "indexed": false,
          "internalType": "uint256",
          "name": "_tokenId",
          "type": "uint256"
        }
      ],
      "name": "MetadataUpdate",
      "type": "event"
    },
    {
      "anonymous": false,
      "inputs": [
        {
          "indexed": true,
          "internalType": "address",
          "name": "previousOwner",
          "type": "address"
        },
        {
          "indexed": true,
          "internalType": "address",
          "name": "newOwner",
          "type": "address"
        }
      ],
      "name": "OwnershipTransferred",
      "type": "event"
    },
    {
      "anonymous": false,
      "inputs": [
        {
          "indexed": true,
          "internalType": "address",
          "name": "from",
          "type": "address"
        },
        {
          "indexed": true,
          "internalType": "address",
          "name": "to",
          "type": "address"
        },
        {
          "indexed": true,
          "internalType": "uint256",
          "name": "tokenId",
          "type": "uint256"
        }
      ],
      "name": "Transfer",
      "type": "event"
    },
    {
      "inputs": [
        {
          "internalType": "address",
          "name": "to",
          "type": "address"
        },
        {
          "internalType": "uint256",
          "name": "tokenId",
          "type": "uint256"
        }
      ],
      "name": "approve",
      "outputs": [],
      "stateMutability": "nonpayable",
      "type": "function"
    },
    {
      "inputs": [
        {
          "internalType": "address",
          "name": "owner",
          "type": "address"
        }
      ],
      "name": "balanceOf",
      "outputs": [
        {
          "internalType": "uint256",
          "name": "",
          "type": "uint256"
        }
      ],
      "stateMutability": "view",
      "type": "function"
    },
    {
      "inputs": [
        {
          "internalType": "uint256",
          "name": "tokenId",
          "type": "uint256"
        }
      ],
      "name": "getAgentCard",
      "outputs": [
        {
          "internalType": "string",
          "name": "",
          "type": "string"
        }
      ],
      "stateMutability": "view",
      "type": "function"
    },
    {
      "inputs": [
        {
          "internalType": "uint256",
          "name": "tokenId",
          "type": "uint256"
        }
      ],
      "name": "getAgentOwner",
      "outputs": [
        {
          "internalType": "address",
          "name": "",
          "type": "address"
        }
      ],
      "stateMutability": "view",
      "type": "function"
    },
    {
      "inputs": [
        {
          "internalType": "uint256",
          "name": "tokenId",
          "type": "uint256"
        }
      ],
      "name": "getApproved",
      "outputs": [
        {
          "internalType": "address",
          "name": "",
          "type": "address"
        }
      ],
      "stateMutability": "view",
      "type": "function"
    },
    {
      "inputs": [],
      "name": "getNextTokenId",
      "outputs": [
        {
          "internalType": "uint256",
          "name": "",
          "type": "uint256"
        }
      ],
      "stateMutability": "view",
      "type": "function"
    },
    {
      "inputs": [
        {
          "internalType": "address",
          "name": "owner",
          "type": "address"
        },
        {
          "internalType": "address",
          "name": "operator",
          "type": "address"
        }
      ],
      "name": "isApprovedForAll",
      "outputs": [
        {
          "internalType": "bool",
          "name": "",
          "type": "bool"
        }
      ],
      "stateMutability": "view",
      "type": "function"
    },
    {
      "inputs": [
        {
          "internalType": "address",
          "name": "agent",
          "type": "address"
        }
      ],
      "name": "isRegistered",
      "outputs": [
        {
          "internalType": "bool",
          "name": "",
          "type": "bool"
        }
      ],
      "stateMutability": "view",
      "type": "function"
    },
    {
      "inputs": [
        {
          "internalType": "address",
          "name": "to",
          "type": "address"
        },
        {
          "internalType": "string",
          "name": "agentCardURI",
          "type": "string"
        }
      ],
      "name": "mintAgentNFT",
      "outputs": [
        {
          "internalType": "uint256",
          "name": "tokenId",
          "type": "uint256"
        }
      ],
      "stateMutability": "nonpayable",
      "type": "function"
    },
    {
      "inputs": [],
      "name": "name",
      "outputs": [
        {
          "internalType": "string",
          "name": "",
          "type": "string"
        }
      ],
      "stateMutability": "view",
      "type": "function"
    },
    {
      "inputs": [],
      "name": "owner",
      "outputs": [
        {
          "internalType": "address",
          "name": "",
          "type": "address"
        }
      ],
      "stateMutability": "view",
      "type": "function"
    },
    {
      "inputs": [
        {
          "internalType": "uint256",
          "name": "tokenId",
          "type": "uint256"
        }
      ],
      "name": "ownerOf",
      "outputs": [
        {
          "internalType": "address",
          "name": "",
          "type": "address"
        }
      ],
      "stateMutability": "view",
      "type": "function"
    },
    {
      "inputs": [],
      "name": "renounceOwnership",
      "outputs": [],
      "stateMutability": "nonpayable",
      "type": "function"
    },
    {
      "inputs": [
        {
          "internalType": "address",
          "name": "from",
          "type": "address"
        },
        {
          "internalType": "address",
          "name": "to",
          "type": "address"
        },
        {
          "internalType": "uint256",
          "name": "tokenId",
          "type": "uint256"
        }
      ],
      "name": "safeTransferFrom",
      "outputs": [],
      "stateMutability": "nonpayable",
      "type": "function"
    },
    {
      "inputs": [
        {
          "internalType": "address",
          "name": "from",
          "type": "address"
        },
        {
          "internalType": "address",
          "name": "to",
          "type": "address"
        },
        {
          "internalType": "uint256",
          "name": "tokenId",
          "type": "uint256"
        },
        {
          "internalType": "bytes",
          "name": "data",
          "type": "bytes"
        }
      ],
      "name": "safeTransferFrom",
      "outputs": [],
      "stateMutability": "nonpayable",
      "type": "function"
    },
    {
      "inputs": [
        {
          "internalType": "address",
          "name": "operator",
          "type": "address"
        },
        {
          "internalType": "bool",
          "name": "approved",
          "type": "bool"
        }
      ],
      "name": "setApprovalForAll",
      "outputs": [],
      "stateMutability": "nonpayable",
      "type": "function"
    },
    {
      "inputs": [
        {
          "internalType": "bytes4",
          "name": "interfaceId",
          "type": "bytes4"
        }
      ],
      "name": "supportsInterface",
      "outputs": [
        {
          "internalType": "bool",
          "name": "",
          "type": "bool"
        }
      ],
      "stateMutability": "view",
      "type": "function"
    },
    {
      "inputs": [],
      "name": "symbol",
      "outputs": [
        {
          "internalType": "string",
          "name": "",
          "type": "string"
        }
      ],
      "stateMutability": "view",
      "type": "function"
    },
    {
      "inputs": [
        {
          "internalType": "uint256",
          "name": "tokenId",
          "type": "uint256"
        }
      ],
      "name": "tokenURI",
      "outputs": [
        {
          "internalType": "string",
          "name": "",
          "type": "string"
        }
      ],
      "stateMutability": "view",
      "type": "function"
    },
    {
      "inputs": [],
      "name": "totalRegisteredAgents",
      "outputs": [
        {
          "internalType": "uint256",
          "name": "",
          "type": "uint256"
        }
      ],
      "stateMutability": "view",
      "type": "function"
    },
    {
      "inputs": [
        {
          "internalType": "address",
          "name": "from",
          "type": "address"
        },
        {
          "internalType": "address",
          "name": "to",
          "type": "address"
        },
        {
          "internalType": "uint256",
          "name": "tokenId",
          "type": "uint256"
        }
      ],
      "name": "transferFrom",
      "outputs": [],
      "stateMutability": "nonpayable",
      "type": "function"
    },
    {
      "inputs": [
        {
          "internalType": "address",
          "name": "newOwner",
          "type": "address"
        }
      ],
      "name": "transferOwnership",
      "outputs": [],
      "stateMutability": "nonpayable",
      "type": "function"
    }
  ],
  "bytecode": "0x60806040523480156200001157600080fd5b506040518060400160405280601381526020017f41504558204167656e74204964656e746974790000000000000000000000000081525060405180604001604052806007815260200166415045582d414960c81b8152508160009081620000799190620001b6565b506001620000888282620001b6565b505050620000a56200009f620000bb60201b60201c565b620000bf565b6001600855620000b533620000bf565b62000282565b3390565b600780546001600160a01b038381166001600160a01b0319831681179093556040519116919082907f8be0079c531659141344cd1fd0a4f28419497f9722a3daafe3b4186f6b6457e090600090a35050565b634e487b7160e01b600052604160045260246000fd5b600181811c908216806200013c57607f821691505b6020821081036200015d57634e487b7160e01b600052602260045260246000fd5b50919050565b601f821115620001b157600081815260208120601f850160051c810160208610156200018c5750805b601f850160051c820191505b81811015620001ad5782815560010162000198565b5050505b505050565b81516001600160401b03811115620001d257620001d262000111565b620001ea81620001e3845462000127565b8462000163565b602080601f831160018114620002225760008415620002095750858301515b600019600386901b1c1916600185901b178555620001ad565b600085815260208120601f198616915b82811015620002535788860151825594840194600190910190840162000232565b5085821015620002725787850151600019600388901b60f8161c191681555b5050505050600190811b01905550565b611b9c80620002926000396000f3fe608060405234801561001057600080fd5b50600436106101425760003560e01c80638da5cb5b116100b8578063c3c5a5471161007c578063c3c5a5471461028f578063c87b56dd146102bb578063caa0f92a146101c4578063e985e9c5146102ce578063ed6960741461030a578063f2fde38b1461031d57600080fd5b80638da5cb5b1461023d57806395d89b411461024e578063a22cb46514610256578063a68dd9c814610269578063b88d4fde1461027c57600080fd5b806323b872dd1161010a57806323b872dd146101d657806342842e0e146101e95780636352211e146101fc57806370a082311461020f578063715018a614610222578063783ed4c21461022a57600080fd5b806301ffc9a71461014757806306fdde031461016f578063081812fc14610184578063095ea7b3146101af5780632159e3db146101c4575b600080fd5b61015a610155366004611535565b610330565b60405190151581526020015b60405180910390f35b61017761035b565b60405161016691906115a2565b6101976101923660046115b5565b6103ed565b6040516001600160a01b039091168152602001610166565b6101c26101bd3660046115ea565b610414565b005b6008545b604051908152602001610166565b6101c26101e4366004611614565b61052e565b6101c26101f7366004611614565b61055f565b61019761020a3660046115b5565b61057a565b6101c861021d366004611650565b6105da565b6101c2610660565b6101776102383660046115b5565b610674565b6007546001600160a01b0316610197565b6101776106b0565b6101c261026436600461166b565b6106bf565b6101976102773660046115b5565b6106ce565b6101c261028a366004611733565b610709565b61015a61029d366004611650565b6001600160a01b031660009081526009602052604090205460ff1690565b6101776102c93660046115b5565b610741565b61015a6102dc3660046117af565b6001600160a01b03918216600090815260056020908152604080832093909416825291909152205460ff1690565b6101c86103183660046117e2565b610851565b6101c261032b366004611650565b6109d6565b60006001600160e01b03198216632483248360e11b1480610355575061035582610a4f565b92915050565b60606000805461036a90611844565b80601f016020809104026020016040519081016040528092919081815260200182805461039690611844565b80156103e35780601f106103b8576101008083540402835291602001916103e3565b820191906000526020600020905b8154815290600101906020018083116103c657829003601f168201915b5050505050905090565b60006103f882610a9f565b506000908152600460205260409020546001600160a01b031690565b600061041f8261057a565b9050806001600160a01b0316836001600160a01b0316036104915760405162461bcd60e51b815260206004820152602160248201527f4552433732313a20617070726f76616c20746f2063757272656e74206f776e656044820152603960f91b60648201526084015b60405180910390fd5b336001600160a01b03821614806104ad57506104ad81336102dc565b61051f5760405162461bcd60e51b815260206004820152603d60248201527f4552433732313a20617070726f76652063616c6c6572206973206e6f7420746f60448201527f6b656e206f776e6572206f7220617070726f76656420666f7220616c6c0000006064820152608401610488565b6105298383610afe565b505050565b6105383382610b6c565b6105545760405162461bcd60e51b81526004016104889061187e565b610529838383610bea565b61052983838360405180602001604052806000815250610709565b6000818152600260205260408120546001600160a01b0316806103555760405162461bcd60e51b8152602060048201526018602482015277115490cdcc8c4e881a5b9d985b1a59081d1bdad95b88125160421b6044820152606401610488565b60006001600160a01b0382166106445760405162461bcd60e51b815260206004820152602960248201527f4552433732313a2061646472657373207a65726f206973206e6f7420612076616044820152683634b21037bbb732b960b91b6064820152608401610488565b506001600160a01b031660009081526003602052604090205490565b610668610d5b565b6106726000610db5565b565b606060006106818361057a565b6001600160a01b0316036106a75760405162461bcd60e51b8152600401610488906118cb565b61035582610741565b60606001805461036a90611844565b6106ca338383610e07565b5050565b6000806106da8361057a565b6001600160a01b0316036107005760405162461bcd60e51b8152600401610488906118cb565b6103558261057a565b6107133383610b6c565b61072f5760405162461bcd60e51b81526004016104889061187e565b61073b84848484610ed5565b50505050565b606061074c82610a9f565b6000828152600660205260408120805461076590611844565b80601f016020809104026020016040519081016040528092919081815260200182805461079190611844565b80156107de5780601f106107b3576101008083540402835291602001916107de565b820191906000526020600020905b8154815290600101906020018083116107c157829003601f168201915b5050505050905060006107fc60408051602081019091526000815290565b9050805160000361080e575092915050565b815115610840578082604051602001610828929190611911565b60405160208183030381529060405292505050919050565b61084984610f08565b949350505050565b600061085b610d5b565b6001600160a01b0383166108c75760405162461bcd60e51b815260206004820152602d60248201527f4964656e7469747952656769737472793a2043616e6e6f74206d696e7420746f60448201526c207a65726f206164647265737360981b6064820152608401610488565b600082511161092a5760405162461bcd60e51b815260206004820152602960248201527f4964656e7469747952656769737472793a204167656e74206361726420555249604482015268081c995c5d5a5c995960ba1b6064820152608401610488565b5060088054908190600061093d83611940565b919050555061094c8382610f7c565b6109568183610f96565b6001600160a01b0383166000818152600960209081526040808320805460ff19166001179055848352600a9091529081902080546001600160a01b031916831790555182907f0d063c6022bff16d09991a9f91882ffa112f5fb2529136f65eb4c77bbd047e43906109c89086906115a2565b60405180910390a392915050565b6109de610d5b565b6001600160a01b038116610a435760405162461bcd60e51b815260206004820152602660248201527f4f776e61626c653a206e6577206f776e657220697320746865207a65726f206160448201526564647265737360d01b6064820152608401610488565b610a4c81610db5565b50565b60006001600160e01b031982166380ac58cd60e01b1480610a8057506001600160e01b03198216635b5e139f60e01b145b8061035557506301ffc9a760e01b6001600160e01b0319831614610355565b6000818152600260205260409020546001600160a01b0316610a4c5760405162461bcd60e51b8152602060048201526018602482015277115490cdcc8c4e881a5b9d985b1a59081d1bdad95b88125160421b6044820152606401610488565b600081815260046020526040902080546001600160a01b0319166001600160a01b0384169081179091558190610b338261057a565b6001600160a01b03167f8c5be1e5ebec7d5bd14f71427d1e84f3dd0314c0f7b2291e5b200ac8c7c3b92560405160405180910390a45050565b600080610b788361057a565b9050806001600160a01b0316846001600160a01b03161480610bbf57506001600160a01b0380821660009081526005602090815260408083209388168352929052205460ff165b806108495750836001600160a01b0316610bd8846103ed565b6001600160a01b031614949350505050565b826001600160a01b0316610bfd8261057a565b6001600160a01b031614610c235760405162461bcd60e51b815260040161048890611967565b6001600160a01b038216610c855760405162461bcd60e51b8152602060048201526024808201527f4552433732313a207472616e7366657220746f20746865207a65726f206164646044820152637265737360e01b6064820152608401610488565b610c928383836001611061565b826001600160a01b0316610ca58261057a565b6001600160a01b031614610ccb5760405162461bcd60e51b815260040161048890611967565b600081815260046020908152604080832080546001600160a01b03199081169091556001600160a01b0387811680865260038552838620805460001901905590871680865283862080546001019055868652600290945282852080549092168417909155905184937fddf252ad1be2c89b69c2b068fc378daa952ba7f163c4a11628f55a4df523b3ef91a4505050565b6007546001600160a01b031633146106725760405162461bcd60e51b815260206004820181905260248201527f4f776e61626c653a2063616c6c6572206973206e6f7420746865206f776e65726044820152606401610488565b600780546001600160a01b038381166001600160a01b0319831681179093556040519116919082907f8be0079c531659141344cd1fd0a4f28419497f9722a3daafe3b4186f6b6457e090600090a35050565b816001600160a01b0316836001600160a01b031603610e685760405162461bcd60e51b815260206004820152601960248201527f4552433732313a20617070726f766520746f2063616c6c6572000000000000006044820152606401610488565b6001600160a01b03838116600081815260056020908152604080832094871680845294825291829020805460ff191686151590811790915591519182527f17307eab39ab6107e8899845ad3d59bd9653f200f220920489ca2b5937696c31910160405180910390a3505050565b610ee0848484610bea565b610eec848484846110e7565b61073b5760405162461bcd60e51b8152600401610488906119ac565b6060610f1382610a9f565b6000610f2a60408051602081019091526000815290565b90506000815111610f4a5760405180602001604052806000815250610f75565b80610f54846111e8565b604051602001610f65929190611911565b6040516020818303038152906040525b9392505050565b6106ca82826040518060200160405280600081525061127b565b6000828152600260205260409020546001600160a01b03166110115760405162461bcd60e51b815260206004820152602e60248201527f45524337323155524953746f726167653a2055524920736574206f66206e6f6e60448201526d32bc34b9ba32b73a103a37b5b2b760911b6064820152608401610488565b60008281526006602052604090206110298282611a4c565b506040518281527ff8e1a15aba9398e019f0b49df1a4fde98ee17ae345cb5f6b5e2c27f5033e8ce79060200160405180910390a15050565b6001600160a01b03841615611091576001600160a01b0384166000908152600960205260409020805460ff191690555b6001600160a01b0383161561073b576001600160a01b0383166000818152600960209081526040808320805460ff19166001179055858352600a909152902080546001600160a01b031916909117905550505050565b60006001600160a01b0384163b156111dd57604051630a85bd0160e11b81526001600160a01b0385169063150b7a029061112b903390899088908890600401611b0c565b6020604051808303816000875af1925050508015611166575060408051601f3d908101601f1916820190925261116391810190611b49565b60015b6111c3573d808015611194576040519150601f19603f3d011682016040523d82523d6000602084013e611199565b606091505b5080516000036111bb5760405162461bcd60e51b8152600401610488906119ac565b805181602001fd5b6001600160e01b031916630a85bd0160e11b149050610849565b506001949350505050565b606060006111f5836112ae565b600101905060008167ffffffffffffffff811115611215576112156116a7565b6040519080825280601f01601f19166020018201604052801561123f576020820181803683370190505b5090508181016020015b600019016f181899199a1a9b1b9c1cb0b131b232b360811b600a86061a8153600a850494508461124957509392505050565b6112858383611386565b61129260008484846110e7565b6105295760405162461bcd60e51b8152600401610488906119ac565b60008072184f03e93ff9f4daa797ed6e38ed64bf6a1f0160401b83106112ed5772184f03e93ff9f4daa797ed6e38ed64bf6a1f0160401b830492506040015b6d04ee2d6d415b85acef81000000008310611319576d04ee2d6d415b85acef8100000000830492506020015b662386f26fc10000831061133757662386f26fc10000830492506010015b6305f5e100831061134f576305f5e100830492506008015b612710831061136357612710830492506004015b60648310611375576064830492506002015b600a83106103555760010192915050565b6001600160a01b0382166113dc5760405162461bcd60e51b815260206004820181905260248201527f4552433732313a206d696e7420746f20746865207a65726f20616464726573736044820152606401610488565b6000818152600260205260409020546001600160a01b0316156114415760405162461bcd60e51b815260206004820152601c60248201527f4552433732313a20746f6b656e20616c7265616479206d696e746564000000006044820152606401610488565b61144f600083836001611061565b6000818152600260205260409020546001600160a01b0316156114b45760405162461bcd60e51b815260206004820152601c60248201527f4552433732313a20746f6b656e20616c7265616479206d696e746564000000006044820152606401610488565b6001600160a01b038216600081815260036020908152604080832080546001019055848352600290915280822080546001600160a01b0319168417905551839291907fddf252ad1be2c89b69c2b068fc378daa952ba7f163c4a11628f55a4df523b3ef908290a45050565b6001600160e01b031981168114610a4c57600080fd5b60006020828403121561154757600080fd5b8135610f758161151f565b60005b8381101561156d578181015183820152602001611555565b50506000910152565b6000815180845261158e816020860160208601611552565b601f01601f19169290920160200192915050565b602081526000610f756020830184611576565b6000602082840312156115c757600080fd5b5035919050565b80356001600160a01b03811681146115e557600080fd5b919050565b600080604083850312156115fd57600080fd5b611606836115ce565b946020939093013593505050565b60008060006060848603121561162957600080fd5b611632846115ce565b9250611640602085016115ce565b9150604084013590509250925092565b60006020828403121561166257600080fd5b610f75826115ce565b6000806040838503121561167e57600080fd5b611687836115ce565b91506020830135801515811461169c57600080fd5b809150509250929050565b634e487b7160e01b600052604160045260246000fd5b600067ffffffffffffffff808411156116d8576116d86116a7565b604051601f8501601f19908116603f01168101908282118183101715611700576117006116a7565b8160405280935085815286868601111561171957600080fd5b858560208301376000602087830101525050509392505050565b6000806000806080858703121561174957600080fd5b611752856115ce565b9350611760602086016115ce565b925060408501359150606085013567ffffffffffffffff81111561178357600080fd5b8501601f8101871361179457600080fd5b6117a3878235602084016116bd565b91505092959194509250565b600080604083850312156117c257600080fd5b6117cb836115ce565b91506117d9602084016115ce565b90509250929050565b600080604083850312156117f557600080fd5b6117fe836115ce565b9150602083013567ffffffffffffffff81111561181a57600080fd5b8301601f8101851361182b57600080fd5b61183a858235602084016116bd565b9150509250929050565b600181811c9082168061185857607f821691505b60208210810361187857634e487b7160e01b600052602260045260246000fd5b50919050565b6020808252602d908201527f4552433732313a2063616c6c6572206973206e6f7420746f6b656e206f776e6560408201526c1c881bdc88185c1c1c9bdd9959609a1b606082015260800190565b60208082526026908201527f4964656e7469747952656769737472793a20546f6b656e20646f6573206e6f7460408201526508195e1a5cdd60d21b606082015260800190565b60008351611923818460208801611552565b835190830190611937818360208801611552565b01949350505050565b60006001820161196057634e487b7160e01b600052601160045260246000fd5b5060010190565b60208082526025908201527f4552433732313a207472616e736665722066726f6d20696e636f72726563742060408201526437bbb732b960d91b606082015260800190565b60208082526032908201527f4552433732313a207472616e7366657220746f206e6f6e20455243373231526560408201527131b2b4bb32b91034b6b83632b6b2b73a32b960711b606082015260800190565b601f82111561052957600081815260208120601f850160051c81016020861015611a255750805b601f850160051c820191505b81811015611a4457828155600101611a31565b505050505050565b815167ffffffffffffffff811115611a6657611a666116a7565b611a7a81611a748454611844565b846119fe565b602080601f831160018114611aaf5760008415611a975750858301515b600019600386901b1c1916600185901b178555611a44565b600085815260208120601f198616915b82811015611ade57888601518255948401946001909101908401611abf565b5085821015611afc5787850151600019600388901b60f8161c191681555b5050505050600190811b01905550565b6001600160a01b0385811682528416602082015260408101839052608060608201819052600090611b3f90830184611576565b9695505050505050565b600060208284031215611b5b57600080fd5b8151610f758161151f56fea2646970667358221220506f9c4ed36a31a2687b85c6e946f04fc444b008c9214f1c5e4825741943366e64736f6c63430008140033",
  "linkReferences": {},
  "deployedLinkReferences": {}
}