{
  "_format": "hh-sol-artifact-1",
  "contractName": "ValidationRegistry",
  "sourceName": "contracts/ValidationRegistry.sol",
  "abi": [
    {
      "inputs": [],
      "stateMutability": "nonpayable",
      "type": "constructor"
    },
    {
      "anonymous": false,
      "inputs": [
        {
          "indexed": true,
          "internalType": "address",
          "name": "previousOwner",
          "type": "address"
        },
        {
          "indexed": true,
          "internalType": "address",
          "name": "newOwner",
          "type": "address"
        }
      ],
      "name": "OwnershipTransferred",
      "type": "event"
    },
    {
      "anonymous": false,
      "inputs": [
        {
          "indexed": true,
          "internalType": "uint256",
          "name": "validationId",
          "type": "uint256"
        },
        {
          "indexed": false,
          "internalType": "string",
          "name": "tradeId",
          "type": "string"
        },
        {
          "indexed": false,
          "internalType": "bytes32",
          "name": "reasoningChainHash",
          "type": "bytes32"
        }
      ],
      "name": "ValidationSubmitted",
      "type": "event"
    },
    {
      "anonymous": false,
      "inputs": [
        {
          "indexed": true,
          "internalType": "uint256",
          "name": "validationId",
          "type": "uint256"
        },
        {
          "indexed": false,
          "internalType": "bool",
          "name": "verified",
          "type": "bool"
        }
      ],
      "name": "ValidationVerified",
      "type": "event"
    },
    {
      "inputs": [],
      "name": "getNextValidationId",
      "outputs": [
        {
          "internalType": "uint256",
          "name": "",
          "type": "uint256"
        }
      ],
      "stateMutability": "view",
      "type": "function"
    },
    {
      "inputs": [
        {
          "internalType": "uint256",
          "name": "validationId",
          "type": "uint256"
        }
      ],
      "name": "getValidation",
      "outputs": [
        {
          "components": [
            {
              "internalType": "bytes32",
              "name": "reasoningChainHash",
              "type": "bytes32"
            },
            {
              "internalType": "bytes",
              "name": "eip712Signature",
              "type": "bytes"
            },
            {
              "internalType": "string",
              "name": "tradeId",
              "type": "string"
            },
            {
              "internalType": "uint256",
              "name": "timestamp",
              "type": "uint256"
            },
            {
              "internalType": "address",
              "name": "validator",
              "type": "address"
            },
            {
              "internalType": "bool",
              "name": "verified",
              "type": "bool"
            }
          ],
          "internalType": "struct ValidationRegistry.ValidationRecord",
          "name": "",
          "type": "tuple"
        }
      ],
      "stateMutability": "view",
      "type": "function"
    },
    {
      "inputs": [
        {
          "internalType": "string",
          "name": "tradeId",
          "type": "string"
        },
        {
          "internalType": "uint256",
          "name": "maxResults",
          "type": "uint256"
        }
      ],
      "name": "getValidationsForTrade",
      "outputs": [
        {
          "internalType": "uint256[]",
          "name": "",
          "type": "uint256[]"
        }
      ],
      "stateMutability": "view",
      "type": "function"
    },
    {
      "inputs": [
        {
          "internalType": "address",
          "name": "validator",
          "type": "address"
        }
      ],
      "name": "isAuthorizedValidator",
      "outputs": [
        {
          "internalType": "bool",
          "name": "",
          "type": "bool"
        }
      ],
      "stateMutability": "view",
      "type": "function"
    },
    {
      "inputs": [
        {
          "internalType": "uint256",
          "name": "validationId",
          "type": "uint256"
        }
      ],
      "name": "isVerified",
      "outputs": [
        {
          "internalType": "bool",
          "name": "",
          "type": "bool"
        }
      ],
      "stateMutability": "view",
      "type": "function"
    },
    {
      "inputs": [],
      "name": "owner",
      "outputs": [
        {
          "internalType": "address",
          "name": "",
          "type": "address"
        }
      ],
      "stateMutability": "view",
      "type": "function"
    },
    {
      "inputs": [],
      "name": "renounceOwnership",
      "outputs": [],
      "stateMutability": "nonpayable",
      "type": "function"
    },
    {
      "inputs": [
        {
          "internalType": "address",
          "name": "validator",
          "type": "address"
        },
        {
          "internalType": "bool",
          "name": "authorized",
          "type": "bool"
        }
      ],
      "name": "setAuthorizedValidator",
      "outputs": [],
      "stateMutability": "nonpayable",
      "type": "function"
    },
    {
      "inputs": [
        {
          "internalType": "bytes32",
          "name": "reasoningChainHash",
          "type": "bytes32"
        },
        {
          "internalType": "bytes",
          "name": "eip712Signature",
          "type": "bytes"
        },
        {
          "internalType": "string",
          "name": "tradeId",
          "type": "string"
        }
      ],
      "name": "submitValidation",
      "outputs": [
        {
          "internalType": "uint256",
          "name": "validationId",
          "type": "uint256"
        }
      ],
      "stateMutability": "nonpayable",
      "type": "function"
    },
    {
      "inputs": [
        {
          "internalType": "address",
          "name": "newOwner",
          "type": "address"
        }
      ],
      "name": "transferOwnership",
      "outputs": [],
      "stateMutability": "nonpayable",
      "type": "function"
    },
    {
      "inputs": [
        {
          "internalType": "uint256",
          "name": "validationId",
          "type": "uint256"
        }
      ],
      "name": "verifyValidation",
      "outputs": [
        {
          "internalType": "bool",
          "name": "",
          "type": "bool"
        }
      ],
      "stateMutability": "nonpayable",
      "type": "function"
    }
  ],
  "bytecode": "0x60a060405234801561001057600080fd5b5061001a33610055565b600180805560045561002a6100a5565b608052336000818152600360205260409020805460ff1916600117905561005090610055565b6101eb565b600080546001600160a01b038381166001600160a01b0319831681178455604051919092169283917f8be0079c531659141344cd1fd0a4f28419497f9722a3daafe3b4186f6b6457e09190a35050565b604080518082018252601881527f415045582056616c69646174696f6e20526567697374727900000000000000006020918201528151808301835260018152603160f81b9082015290516000916101d0917f25f0641fbf96e7f35cbce6e9bcedc40246d08d61b22ff64ba4444e0bb7c41318917fc89efdaa54c0f20c7adf612882df0950f5a951637e0307cdcb4c672f298b8bc69146913091017f454950373132446f6d61696e28737472696e67206e616d652c737472696e672081527f76657273696f6e2c75696e7432353620636861696e49642c6164647265737320602082015271766572696679696e67436f6e74726163742960701b604082015260528101949094526072840192909252609283015260601b6001600160601b03191660b282015260c60190565b60405160208183030381529060405280519060200120905090565b6080516114e5610203600039600050506114e56000f3fe608060405234801561001057600080fd5b50600436106100a95760003560e01c80636bce5000116100715780636bce50001461013d578063715018a61461015d57806375a197bd146101655780638392ae5c146101915780638da5cb5b146101b1578063f2fde38b146101cc57600080fd5b80630f191c1c146100ae57806314527da6146100c557806337b6d96b146100da578063501371ef146101175780635498f9531461012a575b600080fd5b6004545b6040519081526020015b60405180910390f35b6100d86100d3366004610e3e565b6101df565b005b6101076100e8366004610e7a565b600090815260026020526040902060040154600160a01b900460ff1690565b60405190151581526020016100bc565b610107610125366004610e7a565b610212565b6100b2610138366004610eeb565b610456565b61015061014b366004610fcd565b6106a6565b6040516100bc9190611019565b6100d8610836565b61010761017336600461105d565b6001600160a01b031660009081526003602052604090205460ff1690565b6101a461019f366004610e7a565b61084a565b6040516100bc91906110c5565b6000546040516001600160a01b0390911681526020016100bc565b6100d86101da36600461105d565b610a2f565b6101e7610aa8565b6001600160a01b03919091166000908152600360205260409020805460ff1916911515919091179055565b600081815260026020526040812060030154810361024b5760405162461bcd60e51b81526004016102429061113d565b60405180910390fd5b600082815260026020526040808220805491519092917f22ce382c4c1a0ad1ff9137f2b211f1823dd178c2d76ca4764c08d9203a87513291610291906001860190611237565b6040518091039020846002016040516102aa9190611237565b6040805191829003822060038801546004890154602085019790975291830194909452606080830193909352608082019390935260a08101929092529190911b6bffffffffffffffffffffffff191660c082015260d40160405160208183030381529060405280519060200120905060006103e783600101805461032d9061118a565b80601f01602080910402602001604051908101604052809291908181526020018280546103599061118a565b80156103a65780601f1061037b576101008083540402835291602001916103a6565b820191906000526020600020905b81548152906001019060200180831161038957829003601f168201915b50507f19457468657265756d205369676e6564204d6573736167653a0a3332000000006000908152601c889052603c902092506103e1915050565b90610b02565b600484018054600160a01b6001600160a01b038481169083161490810260ff60a01b19909216919091179091556040518181529192509086907f3c2df498f4f2559602b64163700c7c8b00caf4ecf94d1af5ed1e5fa583c8e6e29060200160405180910390a295945050505050565b6000610460610b26565b3360009081526003602052604090205460ff166104d15760405162461bcd60e51b815260206004820152602960248201527f56616c69646174696f6e52656769737472793a2043616c6c6572206e6f7420616044820152681d5d1a1bdc9a5e995960ba1b6064820152608401610242565b846105325760405162461bcd60e51b815260206004820152602b60248201527f56616c69646174696f6e52656769737472793a20526561736f6e696e6720686160448201526a1cda081c995c5d5a5c995960aa1b6064820152608401610242565b60008451116105925760405162461bcd60e51b815260206004820152602660248201527f56616c69646174696f6e52656769737472793a205369676e61747572652072656044820152651c5d5a5c995960d21b6064820152608401610242565b816105ed5760405162461bcd60e51b815260206004820152602560248201527f56616c69646174696f6e52656769737472793a205472616465204944207265716044820152641d5a5c995960da1b6064820152608401610242565b5060048054908190600061060083611243565b909155505060008181526002602052604090208581556001810161062486826112b9565b5060028101610634848683611379565b504260038201556004810180546001600160a81b0319163360ff60a01b191617905560405182907f979e2af0e904c205642626565ff88a8dc6f75f7c079722a8882dd1d97bda502e9061068c90879087908b9061143a565b60405180910390a25061069e60018055565b949350505050565b606060008267ffffffffffffffff8111156106c3576106c3610e93565b6040519080825280602002602001820160405280156106ec578160200160208202803683370190505b509050600060015b6004548110801561070457508482105b1561078f578686604051610719929190611473565b6040518091039020600260008381526020019081526020016000206002016040516107449190611237565b60405180910390200361077d578083838151811061076457610764611483565b60209081029190910101528161077981611243565b9250505b8061078781611243565b9150506106f4565b5060008167ffffffffffffffff8111156107ab576107ab610e93565b6040519080825280602002602001820160405280156107d4578160200160208202803683370190505b50905060005b8281101561082b578381815181106107f4576107f4611483565b602002602001015182828151811061080e5761080e611483565b60209081029190910101528061082381611243565b9150506107da565b509695505050505050565b61083e610aa8565b6108486000610b7f565b565b6040805160c08101825260008082526060602083018190529282018390529181018290526080810182905260a081019190915260008281526002602052604081206003015490036108ad5760405162461bcd60e51b81526004016102429061113d565b600260008381526020019081526020016000206040518060c0016040529081600082015481526020016001820180546108e59061118a565b80601f01602080910402602001604051908101604052809291908181526020018280546109119061118a565b801561095e5780601f106109335761010080835404028352916020019161095e565b820191906000526020600020905b81548152906001019060200180831161094157829003601f168201915b505050505081526020016002820180546109779061118a565b80601f01602080910402602001604051908101604052809291908181526020018280546109a39061118a565b80156109f05780601f106109c5576101008083540402835291602001916109f0565b820191906000526020600020905b8154815290600101906020018083116109d357829003601f168201915b5050509183525050600382015460208201526004909101546001600160a01b0381166040830152600160a01b900460ff16151560609091015292915050565b610a37610aa8565b6001600160a01b038116610a9c5760405162461bcd60e51b815260206004820152602660248201527f4f776e61626c653a206e6577206f776e657220697320746865207a65726f206160448201526564647265737360d01b6064820152608401610242565b610aa581610b7f565b50565b6000546001600160a01b031633146108485760405162461bcd60e51b815260206004820181905260248201527f4f776e61626c653a2063616c6c6572206973206e6f7420746865206f776e65726044820152606401610242565b6000806000610b118585610bcf565b91509150610b1e81610c14565b509392505050565b600260015403610b785760405162461bcd60e51b815260206004820152601f60248201527f5265656e7472616e637947756172643a207265656e7472616e742063616c6c006044820152606401610242565b6002600155565b600080546001600160a01b038381166001600160a01b0319831681178455604051919092169283917f8be0079c531659141344cd1fd0a4f28419497f9722a3daafe3b4186f6b6457e09190a35050565b6000808251604103610c055760208301516040840151606085015160001a610bf987828585610d5e565b94509450505050610c0d565b506000905060025b9250929050565b6000816004811115610c2857610c28611499565b03610c305750565b6001816004811115610c4457610c44611499565b03610c915760405162461bcd60e51b815260206004820152601860248201527f45434453413a20696e76616c6964207369676e617475726500000000000000006044820152606401610242565b6002816004811115610ca557610ca5611499565b03610cf25760405162461bcd60e51b815260206004820152601f60248201527f45434453413a20696e76616c6964207369676e6174757265206c656e677468006044820152606401610242565b6003816004811115610d0657610d06611499565b03610aa55760405162461bcd60e51b815260206004820152602260248201527f45434453413a20696e76616c6964207369676e6174757265202773272076616c604482015261756560f01b6064820152608401610242565b6000807f7fffffffffffffffffffffffffffffff5d576e7357a4501ddfe92f46681b20a0831115610d955750600090506003610e19565b6040805160008082526020820180845289905260ff881692820192909252606081018690526080810185905260019060a0016020604051602081039080840390855afa158015610de9573d6000803e3d6000fd5b5050604051601f1901519150506001600160a01b038116610e1257600060019250925050610e19565b9150600090505b94509492505050565b80356001600160a01b0381168114610e3957600080fd5b919050565b60008060408385031215610e5157600080fd5b610e5a83610e22565b915060208301358015158114610e6f57600080fd5b809150509250929050565b600060208284031215610e8c57600080fd5b5035919050565b634e487b7160e01b600052604160045260246000fd5b60008083601f840112610ebb57600080fd5b50813567ffffffffffffffff811115610ed357600080fd5b602083019150836020828501011115610c0d57600080fd5b60008060008060608587031215610f0157600080fd5b84359350602085013567ffffffffffffffff80821115610f2057600080fd5b818701915087601f830112610f3457600080fd5b813581811115610f4657610f46610e93565b604051601f8201601f19908116603f01168101908382118183101715610f6e57610f6e610e93565b816040528281528a6020848701011115610f8757600080fd5b826020860160208301376000602084830101528097505050506040870135915080821115610fb457600080fd5b50610fc187828801610ea9565b95989497509550505050565b600080600060408486031215610fe257600080fd5b833567ffffffffffffffff811115610ff957600080fd5b61100586828701610ea9565b909790965060209590950135949350505050565b6020808252825182820181905260009190848201906040850190845b8181101561105157835183529284019291840191600101611035565b50909695505050505050565b60006020828403121561106f57600080fd5b61107882610e22565b9392505050565b6000815180845260005b818110156110a557602081850181015186830182015201611089565b506000602082860101526020601f19601f83011685010191505092915050565b60208152815160208201526000602083015160c060408401526110eb60e084018261107f565b90506040840151601f19848303016060850152611108828261107f565b9150506060840151608084015260018060a01b0360808501511660a084015260a0840151151560c08401528091505092915050565b6020808252602d908201527f56616c69646174696f6e52656769737472793a2056616c69646174696f6e206460408201526c1bd95cc81b9bdd08195e1a5cdd609a1b606082015260800190565b600181811c9082168061119e57607f821691505b6020821081036111be57634e487b7160e01b600052602260045260246000fd5b50919050565b600081546111d18161118a565b600182811680156111e957600181146111fe5761122d565b60ff198416875282151583028701945061122d565b8560005260208060002060005b858110156112245781548a82015290840190820161120b565b50505082870194505b5050505092915050565b600061107882846111c4565b60006001820161126357634e487b7160e01b600052601160045260246000fd5b5060010190565b601f8211156112b457600081815260208120601f850160051c810160208610156112915750805b601f850160051c820191505b818110156112b05782815560010161129d565b5050505b505050565b815167ffffffffffffffff8111156112d3576112d3610e93565b6112e7816112e1845461118a565b8461126a565b602080601f83116001811461131c57600084156113045750858301515b600019600386901b1c1916600185901b1785556112b0565b600085815260208120601f198616915b8281101561134b5788860151825594840194600190910190840161132c565b50858210156113695787850151600019600388901b60f8161c191681555b5050505050600190811b01905550565b67ffffffffffffffff83111561139157611391610e93565b6113a58361139f835461118a565b8361126a565b6000601f8411600181146113d957600085156113c15750838201355b600019600387901b1c1916600186901b178355611433565b600083815260209020601f19861690835b8281101561140a57868501358255602094850194600190920191016113ea565b50868210156114275760001960f88860031b161c19848701351681555b505060018560011b0183555b5050505050565b604081528260408201528284606083013760006060848301015260006060601f19601f8601168301019050826020830152949350505050565b8183823760009101908152919050565b634e487b7160e01b600052603260045260246000fd5b634e487b7160e01b600052602160045260246000fdfea264697066735822122067037a98b2fa322b4ad9d5b25b849ba424831e38b8832d49f93d4c52ff67531664736f6c63430008140033",
  "linkReferences": {},
  "deployedLinkReferences": {}
}