{
  "_format": "hh-sol-artifact-1",
  "contractName": "ReputationRegistry",
  "sourceName": "contracts/ReputationRegistry.sol",
  "abi": [
    {
      "inputs": [],
      "stateMutability": "nonpayable",
      "type": "constructor"
    },
    {
      "anonymous": false,
      "inputs": [
        {
          "indexed": true,
          "internalType": "address",
          "name": "previousOwner",
          "type": "address"
        },
        {
          "indexed": true,
          "internalType": "address",
          "name": "newOwner",
          "type": "address"
        }
      ],
      "name": "OwnershipTransferred",
      "type": "event"
    },
    {
      "anonymous": false,
      "inputs": [
        {
          "indexed": true,
          "internalType": "uint256",
          "name": "agentTokenId",
          "type": "uint256"
        },
        {
          "indexed": false,
          "internalType": "uint256",
          "name": "newScore",
          "type": "uint256"
        },
        {
          "indexed": false,
          "internalType": "string",
          "name": "tradeId",
          "type": "string"
        }
      ],
      "name": "ReputationUpdated",
      "type": "event"
    },
    {
      "inputs": [
        {
          "internalType": "uint256",
          "name": "agentTokenId",
          "type": "uint256"
        }
      ],
      "name": "getHistory",
      "outputs": [
        {
          "components": [
            {
              "internalType": "uint256",
              "name": "timestamp",
              "type": "uint256"
            },
            {
              "internalType": "uint256",
              "name": "score",
              "type": "uint256"
            },
            {
              "internalType": "string",
              "name": "tradeId",
              "type": "string"
            },
            {
              "internalType": "bytes32",
              "name": "outcomeHash",
              "type": "bytes32"
            }
          ],
          "internalType": "struct ReputationRegistry.ReputationEntry[]",
          "name": "",
          "type": "tuple[]"
        }
      ],
      "stateMutability": "view",
      "type": "function"
    },
    {
      "inputs": [
        {
          "internalType": "uint256",
          "name": "agentTokenId",
          "type": "uint256"
        }
      ],
      "name": "getLastEntry",
      "outputs": [
        {
          "components": [
            {
              "internalType": "uint256",
              "name": "timestamp",
              "type": "uint256"
            },
            {
              "internalType": "uint256",
              "name": "score",
              "type": "uint256"
            },
            {
              "internalType": "string",
              "name": "tradeId",
              "type": "string"
            },
            {
              "internalType": "bytes32",
              "name": "outcomeHash",
              "type": "bytes32"
            }
          ],
          "internalType": "struct ReputationRegistry.ReputationEntry",
          "name": "",
          "type": "tuple"
        }
      ],
      "stateMutability": "view",
      "type": "function"
    },
    {
      "inputs": [
        {
          "internalType": "uint256",
          "name": "agentTokenId",
          "type": "uint256"
        }
      ],
      "name": "getReputation",
      "outputs": [
        {
          "internalType": "uint256",
          "name": "",
          "type": "uint256"
        }
      ],
      "stateMutability": "view",
      "type": "function"
    },
    {
      "inputs": [],
      "name": "getScoreBounds",
      "outputs": [
        {
          "internalType": "uint256",
          "name": "minScore",
          "type": "uint256"
        },
        {
          "internalType": "uint256",
          "name": "maxScore",
          "type": "uint256"
        }
      ],
      "stateMutability": "pure",
      "type": "function"
    },
    {
      "inputs": [
        {
          "internalType": "address",
          "name": "caller",
          "type": "address"
        }
      ],
      "name": "isAuthorized",
      "outputs": [
        {
          "internalType": "bool",
          "name": "",
          "type": "bool"
        }
      ],
      "stateMutability": "view",
      "type": "function"
    },
    {
      "inputs": [],
      "name": "owner",
      "outputs": [
        {
          "internalType": "address",
          "name": "",
          "type": "address"
        }
      ],
      "stateMutability": "view",
      "type": "function"
    },
    {
      "inputs": [],
      "name": "renounceOwnership",
      "outputs": [],
      "stateMutability": "nonpayable",
      "type": "function"
    },
    {
      "inputs": [
        {
          "internalType": "address",
          "name": "caller",
          "type": "address"
        },
        {
          "internalType": "bool",
          "name": "authorized",
          "type": "bool"
        }
      ],
      "name": "setAuthorizedCaller",
      "outputs": [],
      "stateMutability": "nonpayable",
      "type": "function"
    },
    {
      "inputs": [
        {
          "internalType": "address",
          "name": "newOwner",
          "type": "address"
        }
      ],
      "name": "transferOwnership",
      "outputs": [],
      "stateMutability": "nonpayable",
      "type": "function"
    },
    {
      "inputs": [
        {
          "internalType": "uint256",
          "name": "agentTokenId",
          "type": "uint256"
        },
        {
          "internalType": "int8",
          "name": "delta",
          "type": "int8"
        },
        {
          "internalType": "string",
          "name": "tradeId",
          "type": "string"
        },
        {
          "internalType": "bytes32",
          "name": "outcomeHash",
          "type": "bytes32"
        }
      ],
      "name": "updateReputation",
      "outputs": [],
      "stateMutability": "nonpayable",
      "type": "function"
    }
  ],
  "bytecode": "0x608060405234801561001057600080fd5b5061001a33610048565b6001808055336000818152600460205260409020805460ff191690921790915561004390610048565b610098565b600080546001600160a01b038381166001600160a01b0319831681178455604051919092169283917f8be0079c531659141344cd1fd0a4f28419497f9722a3daafe3b4186f6b6457e09190a35050565b610f9d806100a76000396000f3fe608060405234801561001057600080fd5b506004361061009e5760003560e01c80638da5cb5b116100665780638da5cb5b1461012a578063c8691b2a14610145578063d4d09c7014610165578063f2fde38b1461017a578063fe9fbb801461018d57600080fd5b80630ed6dc8a146100a35780631da623d5146100b8578063454bbd29146100e1578063715018a6146100f457806389370d8b146100fc575b600080fd5b6100b66100b1366004610a43565b6101c9565b005b6100cb6100c6366004610ad9565b610589565b6040516100d89190610b61565b60405180910390f35b6100b66100ef366004610b97565b610710565b6100b6610743565b61011c61010a366004610ad9565b60009081526002602052604090205490565b6040519081526020016100d8565b6000546040516001600160a01b0390911681526020016100d8565b610158610153366004610ad9565b610757565b6040516100d89190610bd3565b604080516000815260646020820152016100d8565b6100b6610188366004610c35565b610879565b6101b961019b366004610c35565b6001600160a01b031660009081526004602052604090205460ff1690565b60405190151581526020016100d8565b6101d16108f2565b3360009081526004602052604090205460ff166102475760405162461bcd60e51b815260206004820152602960248201527f52657075746174696f6e52656769737472793a2043616c6c6572206e6f7420616044820152681d5d1a1bdc9a5e995960ba1b60648201526084015b60405180910390fd5b600085116102a35760405162461bcd60e51b8152602060048201526024808201527f52657075746174696f6e52656769737472793a20496e76616c696420746f6b656044820152631b88125160e21b606482015260840161023e565b816102fe5760405162461bcd60e51b815260206004820152602560248201527f52657075746174696f6e52656769737472793a205472616465204944207265716044820152641d5a5c995960da1b606482015260840161023e565b6000858152600260205260408120549061031a86820b83610c66565b9050600081121561032d5750600061033a565b606481131561033a575060645b600087815260026020908152604080832084905580516080810182524281528083018590528151601f8901849004840281018401835288815285949391928301918a908a9081908401838280828437600092018290525093855250505060209182018890528b8152600382526040808220805460018181018355918452928490208551600490940201928355928401519282019290925590820151919250829160028201906103e99082610d2d565b506060919091015160039182015560008a81526020919091526040902054606410156105395760005b60008a81526003602052604090205461042d90600190610ded565b8110156104e15760008a815260036020526040902061044d826001610e06565b8154811061045d5761045d610e19565b9060005260206000209060040201600360008c8152602001908152602001600020828154811061048f5761048f610e19565b90600052602060002090600402016000820154816000015560018201548160010155600282018160020190816104c59190610e2f565b50600391820154910155806104d981610f02565b915050610412565b5060008981526003602052604090208054806104ff576104ff610f1b565b600082815260208120600460001990930192830201818155600181018290559061052c60028301826109f5565b6003820160009055505090555b887f05e44fa2620040c9ab9012cbf6ff3c2c45c0329e7884fb79b98905eb84b059e783898960405161056d93929190610f31565b60405180910390a25050505061058260018055565b5050505050565b6105b76040518060800160405280600081526020016000815260200160608152602001600080191681525090565b6000828152600360205260409020805461061f5760405162461bcd60e51b8152602060048201526024808201527f52657075746174696f6e52656769737472793a204e6f20686973746f727920666044820152631bdd5b9960e21b606482015260840161023e565b8054819061062f90600190610ded565b8154811061063f5761063f610e19565b9060005260206000209060040201604051806080016040529081600082015481526020016001820154815260200160028201805461067c90610ca4565b80601f01602080910402602001604051908101604052809291908181526020018280546106a890610ca4565b80156106f55780601f106106ca576101008083540402835291602001916106f5565b820191906000526020600020905b8154815290600101906020018083116106d857829003601f168201915b50505050508152602001600382015481525050915050919050565b61071861094b565b6001600160a01b03919091166000908152600460205260409020805460ff1916911515919091179055565b61074b61094b565b61075560006109a5565b565b606060036000838152602001908152602001600020805480602002602001604051908101604052809291908181526020016000905b8282101561086e578382906000526020600020906004020160405180608001604052908160008201548152602001600182015481526020016002820180546107d390610ca4565b80601f01602080910402602001604051908101604052809291908181526020018280546107ff90610ca4565b801561084c5780601f106108215761010080835404028352916020019161084c565b820191906000526020600020905b81548152906001019060200180831161082f57829003601f168201915b505050505081526020016003820154815250508152602001906001019061078c565b505050509050919050565b61088161094b565b6001600160a01b0381166108e65760405162461bcd60e51b815260206004820152602660248201527f4f776e61626c653a206e6577206f776e657220697320746865207a65726f206160448201526564647265737360d01b606482015260840161023e565b6108ef816109a5565b50565b6002600154036109445760405162461bcd60e51b815260206004820152601f60248201527f5265656e7472616e637947756172643a207265656e7472616e742063616c6c00604482015260640161023e565b6002600155565b6000546001600160a01b031633146107555760405162461bcd60e51b815260206004820181905260248201527f4f776e61626c653a2063616c6c6572206973206e6f7420746865206f776e6572604482015260640161023e565b600080546001600160a01b038381166001600160a01b0319831681178455604051919092169283917f8be0079c531659141344cd1fd0a4f28419497f9722a3daafe3b4186f6b6457e09190a35050565b508054610a0190610ca4565b6000825580601f10610a11575050565b601f0160209004906000526020600020908101906108ef91905b80821115610a3f5760008155600101610a2b565b5090565b600080600080600060808688031215610a5b57600080fd5b853594506020860135600081810b8214610a73578081fd5b90945060408701359067ffffffffffffffff80831115610a91578182fd5b828901925089601f840112610aa4578182fd5b823581811115610ab2578283fd5b8a6020828601011115610ac3578283fd5b979a969950505060200195606001359392505050565b600060208284031215610aeb57600080fd5b5035919050565b80518252600060208083015181850152604083015160806040860152805180608087015260005b81811015610b355782810184015187820160a001528301610b19565b50600060a082880101526060850151606087015260a0601f19601f830116870101935050505092915050565b602081526000610b746020830184610af2565b9392505050565b80356001600160a01b0381168114610b9257600080fd5b919050565b60008060408385031215610baa57600080fd5b610bb383610b7b565b915060208301358015158114610bc857600080fd5b809150509250929050565b6000602080830181845280855180835260408601915060408160051b870101925083870160005b82811015610c2857603f19888603018452610c16858351610af2565b94509285019290850190600101610bfa565b5092979650505050505050565b600060208284031215610c4757600080fd5b610b7482610b7b565b634e487b7160e01b600052601160045260246000fd5b8082018281126000831280158216821582161715610c8657610c86610c50565b505092915050565b634e487b7160e01b600052604160045260246000fd5b600181811c90821680610cb857607f821691505b602082108103610cd857634e487b7160e01b600052602260045260246000fd5b50919050565b601f821115610d2857600081815260208120601f850160051c81016020861015610d055750805b601f850160051c820191505b81811015610d2457828155600101610d11565b5050505b505050565b815167ffffffffffffffff811115610d4757610d47610c8e565b610d5b81610d558454610ca4565b84610cde565b602080601f831160018114610d905760008415610d785750858301515b600019600386901b1c1916600185901b178555610d24565b600085815260208120601f198616915b82811015610dbf57888601518255948401946001909101908401610da0565b5085821015610ddd5787850151600019600388901b60f8161c191681555b5050505050600190811b01905550565b81810381811115610e0057610e00610c50565b92915050565b80820180821115610e0057610e00610c50565b634e487b7160e01b600052603260045260246000fd5b818103610e3a575050565b610e448254610ca4565b67ffffffffffffffff811115610e5c57610e5c610c8e565b610e6a81610d558454610ca4565b6000601f821160018114610e9e5760008315610e865750848201545b600019600385901b1c1916600184901b178455610582565b600085815260209020601f19841690600086815260209020845b83811015610ed85782860154825560019586019590910190602001610eb8565b5085831015610ddd5793015460001960f8600387901b161c19169092555050600190811b01905550565b600060018201610f1457610f14610c50565b5060010190565b634e487b7160e01b600052603160045260246000fd5b83815260406020820152816040820152818360608301376000818301606090810191909152601f909201601f191601019291505056fea2646970667358221220a60fe97c0c0a9e110d46bdd615d9d974a0c8b11fd47ab0f72e6148aa25a5bda264736f6c63430008140033",
  "linkReferences": {},
  "deployedLinkReferences": {}
}